:020000040000FA
:1000000002001700000080FB120020B9000302006C
:100010001112002312000375D0007581BF02000881
:10002000790122D2B6A2B650067E907F0180217E51
:10003000647F00801B7EF47F01D2B7EEFAEFFB12E3
:10004000008CC2B774F4C39EFA74019FFB12008C3B
:10005000A2B4401CC3EE9401EF9400A2D265D03349
:10006000400AEE24FFFEEF34FFFF80047E007F0095
:10007000A2B540C5C3EE94F4EF9401A2D265D0338B
:1000800050B3EE2401FEEF3400FF80AD800900EA9A
:1000900024FFFAEB34FFFB74006A700374006B708A
:0200A000ED224F
:0400000500000017E0
:00000001FF
